:020000040800F2
:1000000050070020A9020008C51E0008BD1E0008F8
:10001000C11E0008FD0C0008252200080000000099
:10002000000000000000000000000000251F000884
:10003000010D000800000000C91E0008291F00086B
:10004000C3020008C3020008C3020008C30200087C
:10005000C3020008C3020008C3020008C30200086C
:10006000C3020008C3020008C3020008C30200085C
:10007000C3020008C3020008C3020008C30200084C
:10008000C3020008C3020008C3020008C30200083C
:10009000C3020008C3020008C3020008C30200082C
:1000A000C3020008C3020008C3020008C30200081C
:1000B000C3020008C3020008C3020008C30200080C
:1000C000C3020008C3020008C3020008C3020008FC
:1000D000C3020008C3020008C3020008C3020008EC
:1000E000C3020008C3020008C3020008C3020008DC
:1000F000C3020008C3020008C3020008C3020008CC
:10010000C3020008C3020008C3020008C3020008BB
:10011000C3020008C3020008C3020008C3020008AB
:10012000C3020008C3020008C3020008C30200089B
:10013000C30200080000000000000000C302000825
:10014000C3020008C3020008C3020008C30200087B
:10015000C3020008C3020008C3020008C30200086B
:10016000C3020008C3020008C3020008C30200085B
:10017000C3020008C3020008C30200080000000018
:1001800000000000C30200080000000000000000A2
:10019000C30200080000000000000000C3020008C5
:1001A000000000000000000000000000C302000882
:1001B000C3020008C3020008C3020008C30200080B
:1001C000C302000800F002F800F05FF814A696E8F9
:1001D000000CB244B344DA4501D100F056F8BAE855
:1001E0000F000FA696E83000A5EB040504EB060708
:1001F000AAEB0704A7F101074FEA15154FEA3414DB
:10020000A4F10104AC4201D300F03FF813F0010F58
:1002100018BFFB1A43F0010300F001F8DBE71847B1
:10022000002C0000202C0000103A24BF78C878C1B0
:10023000FAD8520724BF30C830C144BF04680C60EC
:1002400070470000704700000023002400250026AE
:10025000103A28BF78C1FBD8520728BF30C148BF29
:100260000B607047662902F06B85002070471FB550
:1002700002F059FD00F0CEFB04000020002102F046
:10028000C5FCE0601FBD10B510BD00F0C3FC1146F9
:10029000FFF7EDFF01F0C8FF00F0E1FC03B4FFF74A
:1002A000F2FF03BC00F022FD0948804709480047DF
:1002B000FEE7FEE7FEE7FEE7FEE7FEE7FEE7FEE716
:1002C000FEE7FEE704480549054A064B7047000073
:1002D000E51F0008C501000850010020500700205C
:1002E000500300205003002053EA020C00F0698004
:1002F0002DE9F04B4FF00006002B1FBFB3FA83F53A
:1003000003FA05F424FA05F65E4012BF1643B2FA6A
:1003100082F502FA05F4C5F120051EBF22FA05FC9C
:1003200044EA0C04203556EA044C4FEA144418BF42
:10033000641C4FF000084FF00009904271EB030C71
:1003400039D3002919BFB1FA81F701FA07F6B0FADB
:1003500080F700FA07F6C7F120071EBF20FA07FC56
:1003600046EA0C062037B6FBF4FCA7EB0507103F66
:1003700007F01F0BCBF120062CFA06F60CFA0BFB4C
:1003800044BFB3460026202FA4BF5E464FF0000BAB
:100390005BEA060C08BF4FF0010B19EB0B0948EBA9
:1003A0000608ABFB027C06FB02CC0BFB03CCC01B9C
:1003B00071EB0C01C1E70B46024641464846BDE8D9
:1003C000F08B13B5084318BF4FF0FF300146AFF371
:1003D0000080BDE81C4070470FB41CB50C0007AA94
:1003E000009007D04142A14202D32044401E01E0C8
:1003F0004FF0FF30074B7B4469460190069800F0B0
:10040000EEFA0020002C01D0009908701CBC5DF8A9
:1004100014FB00000B0600002DE9F0474FF0000A26
:1004200089460446C0F820A02046E1688847002895
:1004300076D0252806D0D4E901219047206A401CB7
:100440002062F1E7E168204600258847C4F81CA037
:1004500006460027C4F818A02A2E09D0304602F01C
:10046000CDFB38B304EB8708303EC8F8186019E0BC
:1004700059F8041B204604EB87029161E168884724
:10048000012F064618D1E069002820DA25F0200562
:100490001DE0D8F8180000EB800006EB4000303873
:1004A000C8F818002046E1688847064602F0A6FB17
:1004B0000028EED1012F0AD02E2E08D12046E16867
:1004C00088477F1C0646022F45F02005C4DBA06943
:1004D000002803DA404245F00105A061E80701D099
:1004E00025F01005B6B1A6F14100192802D8203632
:1004F00045F400654A463146204625604D46FFF7E3
:10050000B1FE58B1012806D0ED1D25F0070000F11D
:10051000080989E704E005F1040985E730468AE720
:10052000206ABDE8F08710B5431C02E010F8011BFB
:1005300071B18107FAD14FF0013202C88C1A8C4395
:1005400014EAC211F9D0C01A0A0603D0C01E10BDA9
:10055000C01A10BD0A0401D0801E10BD0902FCD0D3
:10056000401E10BD4FF0000200B51346944696465B
:10057000203922BFA0E80C50A0E80C50B1F12001B6
:10058000BFF4F7AF090728BFA0E80C5048BF0CC064
:100590005DF804EB890028BF40F8042B08BF7047C2
:1005A00048BF20F8022B11F0804F18BF00F8012B34
:1005B00070477047704770472DE9FF4F0C461E4645
:1005C0004FF0FF378BB0D2E90001DDF860800A9070
:1005D0008A46C1F30A5505B93D46002108464FF049
:1005E0000000BAF1000F00F4400005DA00EB8000D3
:1005F0004FF4400101EA50004FEA9059B9F1010F60
:1006000000DDB9460A9850EA4A000ED044F6105070
:10061000A5F2FF3545432F14B8F1000F1ED07542E7
:10062000291E1EDDC9F100021CE0B8F1010F4FF0D8
:10063000000001D0302103E0F24305E02154401CCA
:10064000B042FBDB30460022002121540B99C1F857
:100650000880C1E900200FB0BDE8F08FBD1B6D1C04
:10066000DEE74A4600DA694206A800F05DFA06AB0A
:1006700093E8070003AB83E8070050460A9901F0AE
:10068000DDFE8DE80700A0F500501F3800900398AC
:10069000002D0ADD42F21F014A460844002303A947
:1006A0000390684602F046F909E0A0F500504A467A
:1006B0001F38002303A90390684602F050F98DE823
:1006C00007000004000C03D04FF0FF30410800E0A9
:1006D0001046B8F1000F03D00022009215461EE02C
:1006E000751E05D400F09AF9303262556D1EF9D5A9
:1006F000B3460122084302D000227F1C04E0207888
:10070000302801D100227F1E002A099784D01DE0E5
:10071000112D07DA00F082F9303262556D1C50EA73
:100720000102F5D1084302D00098C8B10EE00021C3
:10073000681E05E0235C625C63542254401E491C21
:100740008142F7DBAB46A81B401E0990002004F84D
:100750000B000B98099AC0F80880C0E9002B7AE7D3
:1007600011264FF0000857E72DE9F04F8846044660
:10077000D21D22F0070191B0D1E90001CDE90A01B3
:1007800002F024FA02460B98C00F01D02D2007E09A
:100790002068810701D52B2002E0202101EAC0005A
:1007A000032A099001D0072A05DB0346414620466B
:1007B00000F07AF90BE12078800601D5E06900E0CD
:1007C0000620B8F1650F814606D0B8F1660F18D043
:1007D000B8F1670F70D131E00020B9F1110F00902E
:1007E00001DB112301E009F101030AAA01A90CA808
:1007F000FFF7E2FEDDE90C70002609F101058346F2
:1008000047E001204B4600904FF000470AAA01A99B
:100810000CA8FFF7D1FEDDE90DB00C995D4600266E
:1008200010B909F101000D18B9EB050003D4C0F1AE
:10083000FF3609F10105A5EB09002BE0B9F1010F25
:1008400001DA4FF001090020B9F1110F009048467C
:1008500001DD112300E003460AAA01A90CA8FFF755
:10086000ABFEDDE90C704D4600268346207800077C
:100870000AD4AB4500DA5D4601A8012D04DD41191B
:1008800011F8011C302907D04F4502DA17F1040F87
:1008900004DA012082460FE06D1EEEE7002F02DC35
:1008A000ED1B3E4403E0781CA84200DD7D1CB81B14
:1008B00000F1010A4FF000472078000703D4AA4551
:1008C00001DB4FF0FF3A0021B7F1004F0DF1430873
:1008D0008DF8431024D002202B23002F01DA7F4211
:1008E0002D230A21021EA0F1010000DC5FB197FB5D
:1008F000F1FC97FBF1F201FB1C7C17460CF1300C6C
:1009000008F801CDEEE7A8F1010003702188090580
:1009100001D5452100E06521A0F1010800F8011C86
:1009200009980FA9A1EB0807FF1D00B1012041198B
:1009300001EBEA70A1693844081A401EA0612078D2
:10094000C00602D42046AFF30080099828B1D4E94C
:1009500001219047206A401C20622078C00622D5E1
:100960002046AFF300801EE0002E04DBB34502DD1D
:1009700001A8805D00E03020D4E901219047206A81
:10098000401C2062761CAAF101005FEA000A0AD12D
:1009900000F040F8C0680168405CD4E9012190474C
:1009A000206A401C2062281EA5F10105DCDC07E05E
:1009B000D4E9012118F8010B9047206A401C2062FD
:1009C000381EA7F10107F3DC2046AFF300800320B7
:1009D00011B041E601694A1C02610878704700B510
:1009E0008FB0CDE901310021059105497944CDE968
:1009F000031011466846FFF70FFD0FB000BD000061
:100A0000E5FFFFFFD1E900239A4202D2531C0B609D
:100A100010707047004870473000002030B5B0F1CA
:100A20000A0271F100034FEA900E4EEA817EB0EBAC
:100A30000E0061EB91014FEA101E4EEA017E10EBB1
:100A40000E0041EB11114FEA102E4EEA016E10EB31
:100A50000E0041EB11214FEA104E4EEA014E10EB11
:100A60000E0041EB1141401841F100014FEAD00066
:100A700040EA41704FEAD1014FEA810444EA9074A0
:100A800010EB800544EB01046D1944EB0404521B88
:100A9000A3414FF0000348BF0A3200D530BD401CCF
:100AA00041F1000130BD00002DE9F0411F46044630
:100AB00003260168072A01F4006004DB08B116A5CB
:100AC00005E016A503E008B115A500E015A521F085
:100AD00010002060A069C01EA0610FB1401EA0617F
:100AE0002046AFF300804FB1D4E90121384690474A
:100AF000206A401C2062C01C206206E0206AFAE7DF
:100B0000D4E9012115F8010B9047761EF8D2204652
:100B1000AFF30080BDE8F0814E414E006E616E0083
:100B2000494E4600696E66002DE9F047814616463B
:100B30008AB0354878440DC88DE80D0032487844B5
:100B4000801C03AC0DC884E80D0041F69B300844BE
:100B5000372190FBF1F290FBF1F5A5F1800501FB47
:100B600012041B3C02D56442012000E00020DFF8A3
:100B700098A080460027FA44AAF1BE0A0EE0E007DA
:100B80000AD03246684607EB470101230AEB810190
:100B900001F0E5FE8DE8070064107F1C002CEED10B
:100BA000194F7F44AE3F19E0E80715D007EB04105A
:100BB0000DF1180A90E80E008AE80E00C068F042B5
:100BC00001D1981908903246012306A903A801F023
:100BD000C6FE03AB83E807006D10641C002DE3D153
:100BE0004FF0010332466946B8F1000F03A802D066
:100BF00001F0A0FE01E001F0B2FEC9E90001C9F870
:100C000008200AB0BDE8F08788220000004870473D
:100C1000100000207546FFF7F9FFAE460500694653
:100C2000534620F00700854618B020B5FFF74AFB71
:100C3000BDE820404FF000064FF000074FF00008DD
:100C40004FF0000BAC46ACE8C009ACE8C009ACE81A
:100C5000C009ACE8C00921F007018D46704710B506
:100C60000446AFF300802046BDE81040FFF716BBF6
:100C700030B44FF0013C50F8042B51F8043BCCFA4F
:100C800052F4D51A20D1FCB950F8042B51F8043B8A
:100C9000CCFA52F4D51A17D1B4B950F8042B51F844
:100CA000043BCCFA52F4D51A0ED16CB950F8042B8F
:100CB00051F8043BCCFA52F4D51A05D1002CDAD005
:100CC00030BC4FF00000704729BAB1FA81F111F041
:100CD0001801D1F120008440F2D1CA40CB4012F07B
:100CE000FF0213F0FF0330BCD01A704701491820EF
:100CF000ABBEFEE72600020070470000FEE70000E2
:100D000070470000B0B5044600F0E6F8054640F232
:100D10000000C2F200000078611C18BF044400BF4C
:100D200000F0DAF8401BA042FAD3B0BD2DE9F04F35
:100D300083B000F1200200F13E4741F60005009229
:100D400007F1FF77C4F2020507224FEAB726A8424F
:100D500008BF062200254FF000084FF00009062EBC
:100D600038BF4FEAB72201920AE000BF09F101093A
:100D700008F10208B9F1100F05F1040500F0A28096
:100D80000F68012202FA09FE17EA0E0AEED0D1F826
:100D900004C003220CF003077E1E02FA08F4012EA1
:100DA0006FEA040B12D88468CE6804EA0B0406FAD2
:100DB00008F634438460446824EA0E06CCF3001439
:100DC00004FA09F42643466004E000BF032F01D172
:100DD00003271EE0C6688C6806EA0B0604FA08F4CE
:100DE0002643022FC66014D16FF00302009E02EA70
:100DF000590756F807C005F01C040F220B69A240E2
:100E00002CEA0202A3401A43F251D1F804C00CF0BC
:100E10000307026807FA08F302EA0B021A431CF4FC
:100E2000403F0260A2D0002243F644030292C4F283
:100E300002031A6843F6004442F480421A601A68BA
:100E4000C4F2010402F480420292029A29F00302E1
:100E50004FF6084C2244CFF6FF7C52F80C3005F0D8
:100E60000C070F26BE40B343019E06FA07F73B432B
:100E700042F80C30A2684B6842EA0A0743F60C4C71
:100E8000DE0258BF22EA0A07A760C4F2010CDCF8B0
:100E900000209E0242EA0A0758BF22EA0A07CCF85D
:100EA000007062689E0342EA0A0758BF22EA0A07F6
:100EB00067602268DB0342EA0A0758BF22EA0A0792
:100EC000276053E703B0BDE8F08F0000002A08BF99
:100ED000090481617047000040F24810C2F200002E
:100EE0000068704740F2000040F24811C2F2000072
:100EF000C2F2000100780A681044086070470000E0
:100F000080B543F60040C4F20200016841F400716C
:100F10000160016841F480610160016841F4807101
:100F20000160032000F076F8002000F005F800F0E2
:100F300027F8002080BD000070B540F20006C2F224
:100F4000000640F208013278C2F200014FF47A73D1
:100F50000968B3FBF2F20446B1FBF2F1084600F077
:100F6000C7FB0F2C4FF0010508D838B94FF0FF3000
:100F700021460022002500F021F87460284670BD4B
:100F800082B0002043F640010190C4F202014A6899
:100F900042F480424A604A6802F480420192019A17
:100FA0000090086840F080500860086800F08050A9
:100FB00000900098072002B000F02CB810B54EF653
:100FC0000C5CCEF2000CDCF80030C3F3022E8EF085
:100FD0000704042C28BF0424BEF103034FF0FF3E96
:100FE0000EFA04F438BF0023A14399400EFA03F32C
:100FF0009A43114300F00F0200F160430901043AE3
:1010000003F564436244002848BF02F10C031970E1
:1010100010BD00004EF60C51CEF200010A684FF6EA
:10102000FF031A4060F30A2242F0806040F0FD7036
:101030000860704770B582B00020019043F6400010
:10104000C4F202000168402641F08051016000684E
:10105000C4F20E2600F080500190019847F204057A
:101060000120C4F200053060FFF736FF044600BFE0
:101070002868C00306D4FFF72FFF001BB0F57A7F66
:10108000F6D90EE001207060FFF726FF044600BF8E
:101090002868800308D4FFF71FFF001BB0F57A7F94
:1010A000F6D9032002B070BD002002B070BD000070
:1010B000002804BF012070472DE9F04143F60808DD
:1010C000C4F202080446D8F8F8030D4600F00F00F9
:1010D000814207D988F8F853D8F8F80300F00F00D8
:1010E000A84277D12068810717D5410705D5D8F8E0
:1010F000001041F4E051C8F80010010705D5D8F8F8
:10110000001041F46041C8F80010D8F80010A2683F
:1011100021F0F0011143C8F80010C00740D1D8F801
:10112000F80300F00F00854207D288F8F853D8F88A
:10113000F80300F00F00A8424CD12068410707D502
:10114000D8F80010E26821F4E0511143C8F800100B
:10115000000708D5D8F80000216920F4604040EA73
:10116000C100C8F8000000F083F8D8F8001042F67B
:10117000D852C1F30311C0F60002515C40F20802DC
:1011800020FA01F140F20400C2F200000068C2F24D
:1011900000021160FFF7D0FE0020BDE8F08100BF23
:1011A0006068811E022907D258F8081C89015CBFBB
:1011B0000120BDE8F08111E0012807D158F8081C92
:1011C00089035CBF0120BDE8F08107E058F8081CE6
:1011D000890703D40120BDE8F08100BFD8F80010D2
:1011E00021F003010843C8F80000FFF775FE06462A
:1011F00041F28837D8F80000616800F00C00B0EBCD
:10120000810F8CD0FFF768FE801BB842F2D9032013
:10121000BDE8F08140F20800C2F2000000687047AB
:1012200040F2080043F60801C2F20000C4F20201D5
:101230000068096842F6E852C1F38221C0F6000254
:10124000515CC8407047000040F2080043F60801B6
:10125000C2F20000C4F202010068096842F6E852D6
:10126000C1F34231C0F60002515CC8407047000033
:1012700010B543F60404C4F202046068C0F38101AF
:1012800042F20040C0F2F400DFE801F04202081828
:1012900041F20020C0F27A0010BD00BF216801F0C9
:1012A0003F02216823684902C3F3881116D4A1FBC9
:1012B00000010023FFF718F817E000BF216801F0D4
:1012C0003F02216823684902C3F3881114D4A1FBAB
:1012D00000010023FFF708F815E000BF41F20020ED
:1012E000C0F27A004843B0FBF2F021680222C1F359
:1012F000014102EB410109E041F20020C0F27A0015
:101300004843B0FBF2F02168C1F30271B0FBF1F089
:1013100010BD0000002804BF012070472DE9F041F6
:1013200082B00446007843F60006C007C4F2020605
:101330000CD0B06800F00C00042840F089803068C0
:10134000800303D56068002800F050812078800772
:1013500023D5B06810F00C0F11D0B06800F00C006D
:10136000082802D17068400209D5B06800F00C006E
:101370000C2840F09F807068400200F19B8030682C
:10138000800703D5E068012840F03081306821698A
:1013900020F0F80040EAC10030602078000713D444
:1013A000207840072AD4A569002D00F01A81B06882
:1013B00000F00C00082840F0AB80012D40F0E880E0
:1013C000012002B0BDE8F0816069002840F2000011
:1013D000C4F2472000F088800121C0F8801EFFF78A
:1013E0007BFD0546706F8007DAD4FFF775FD401B63
:1013F0000228F7D9032002B0BDE8F081306C5FEA23
:10140000C0080AD400200190306C40F08050306455
:10141000306C00F080500190019847F20007C4F250
:1014200000073868C00537D4386840F480703860E9
:10143000FFF752FD054600BF3868C0052CD4FFF702
:101440004BFD401B0228F7D9032002B0BDE8F08114
:10145000B06800F00C00082803D1706840023FF526
:101460006EAFB06800F00C000C2803D17068400229
:101470003FF565AF61683068B1F5803F07D0B1F5E1
:10148000A02F40F0CB8040F480203060306840F4E2
:1014900080303060CBE000BFA168306F012905D0FB
:1014A000052957D140F004003067306F40F001004B
:1014B000306759E0E068002800F09C800020C4F20A
:1014C000472001210160FFF707FD054630688007CE
:1014D0003FF55CAFFFF700FD401B02284FF0030013
:1014E000F4D902B0BDE8F0810021C0F8801EFFF7FA
:1014F000F3FC0546706F80077FF552AFFFF7ECFCF9
:10150000401B0228F6D9032002B0BDE8F08100BFDD
:101510000027C4F2472700203866FFF7DDFC022DC4
:1015200005460BD13068800140F19280FFF7D4FC72
:10153000401B02284FF00300F4D9D2E73068800145
:101540004FD5FFF7C9FC401B02284FF00300F5D927
:10155000C7E700BF20F001003067306F002920F09E
:101560000400306700F09880FFF7B6FC054641F2B2
:10157000883700BF306F800700F1A080FFF7ACFC18
:10158000401BB842F6D9032002B0BDE8F08100BF8D
:101590007068E16900F480028A4227D1216A00F074
:1015A0003F028A4222D147F6C071626A0140B1EB24
:1015B000821F1BD1A16A4FF6FF73C903994300F440
:1015C0004032A1F580318A4210D1E16A00F07062A8
:1015D000B2EB016F0AD1216B00F0E040B0EB017F6C
:1015E00004D1002002B0BDE8F08100BF012002B0AC
:1015F000BDE8F0810020C4F2472000210160FFF720
:101600006BFC0546306880077FF5C7AEFFF764FCCA
:10161000401B02284FF00300F4D962E720F4803029
:1016200030603068002920F48020306050D0FFF70F
:1016300053FC0546306880033FF588AEFFF74CFC4D
:10164000401B6428F6D9032002B0BDE8F08100BF3A
:1016500004F11C052FCD246B084340EA8210D90306
:101660004FF6FF729143A1F5803140EA05600843CF
:1016700040EA0470706001203866FFF72DFC0446D4
:1016800030688001ADD4FFF727FC001B02284FF023
:101690000300F5D925E700BFFFF71EFC054641F220
:1016A000883700BF306F800708D5FFF715FC401B57
:1016B000B8424FF00300F5D913E700BFB8F1000FAF
:1016C0003FF571AE306C20F0805030646BE600BFA7
:1016D000FFF702FC054600BF306880037FF536AE99
:1016E000FFF7FAFB401B64284FF00300F4D9F8E63B
:1016F000411E0020B0EB116F1CBF012070474EF25D
:101700001002CEF2000251604EF62351CEF20001DB
:10171000F0230B70072190601160704790F83C2017
:10172000012A4FF0020254D010B580F83D20026823
:10173000D2F804E0D2F808C00C682EF070032343FE
:1017400041F2FF74C4F20004A24253600EDC40F286
:10175000FF73C4F200039A4216DCB2F1804F2BD023
:1017600040F20043C4F2000324E000BF40F2FF3324
:10177000C4F201039A4213DC41F60003C4F20003F1
:101780009A4219D0002313E040F60003C4F200038C
:101790009A4211D040F60043C4F200030AE000BFB1
:1017A00044F20003C4F201039A4205D040F2004320
:1017B000C4F201039A4204D149682CF08003194312
:1017C00091600121002280F83D1080F83C20BDE8A6
:1017D0001040104670470000002804BF01207047E9
:1017E00010B5044690F83D0028B9002084F83C006C
:1017F000204600F01FF8022084F83D002068211DDB
:1018000000F0FAFB012084F8460084F83E0084F8DA
:101810003F0084F8400084F8410084F8420084F8D6
:10182000430084F8440084F8450084F83D0000201B
:1018300010BD000000680021C4F20101884218BFF9
:10184000704781B00020009043F64400C4F20200CB
:10185000016841F001010160006800F001000090A2
:10186000009801B07047000090F83C20012A4FF02A
:1018700002026CD080B580F83D20D0F800C04FF651
:101880007772DCF8083023EA0202CCF808200B68F3
:101890004F2B29DC1F2B45DD202B46D0302B44D08D
:1018A000402B40F0AF80D1F804E0C968DCF820306C
:1018B000DCF8202022F00102CCF82020DCF81820EF
:1018C00022F0F00242EA011123F00A0242EA0E027B
:1018D000CCF81810CCF82020DCF8081041F04701B3
:1018E00021F0300128E000BF6F2B33DDB3F5005F3E
:1018F00074D0B3F5805F21D0702B40F08380D1E9A4
:1019000001E3C968DCF8082043EA0E0322F47F42B1
:1019100043EA01211143CCF80810DCF8081041F02B
:10192000770109E00BB1102B6CD1DCF8081021F025
:101930007001194341F00701CCF808100022012181
:1019400080F83D10002180F83C10BDE88040104632
:10195000704700BF502B21D0602B53D1D1F804E049
:10196000C968DCF82030DCF8202022F01002CCF826
:101970002020DCF8182022F4704242EA013123F0E2
:10198000A00242EA0E12CCF81810CCF82020DCF8A5
:10199000081041F0670121F01001CDE7D1F804E013
:1019A000C968DCF82030DCF8202022F00102CCF8F5
:1019B0002020DCF8182022F0F00242EA011123F086
:1019C0000A0242EA0E02CCF81810CCF82020DCF80B
:1019D000081041F0570121F02001ADE7D1E901E302
:1019E000C968DCF8082043EA0E0322F47F4243EA88
:1019F00001211143CCF80810DCF8081041F48041B3
:101A00009AE700BF01229AE731B3042908D00829D8
:101A100019BF4FF0450C41234FF0440C402302E026
:101A20004FF0430C3F23C25C10F80C30012A4FF0FA
:101A3000010208BF012B63D10222082922D0042908
:101A400054D180F83F2080F843204FEAB103032BA4
:101A50004FF0010220D953E090F83E2090F8423038
:101A6000012A4FF0010208BF012B49D1022280F860
:101A70003E2080F842204FEAB103032B4FF00102D1
:101A80000AD93DE080F8402080F844204FEAB103B5
:101A9000032B4FF0010233D842F6F05C0068C0F629
:101AA000000C5CF823C0C36801F01F0143EA0C037B
:101AB000C360036A02FA01F123EA01020262026AC8
:101AC000114341F2FF72C4F200029042016219DC3C
:101AD00040F2FF71C4F20001884221DCB0F1804F76
:101AE00036D040F20041C4F200012FE080F84120DE
:101AF00080F845204FEAB103032B4FF00102CBD908
:101B00001046704740F2FF31C4F20101884213DCF5
:101B100041F60001C4F20001884219D0002113E00F
:101B200040F60001C4F20001884211D040F60041A5
:101B3000C4F200010AE000BF44F20001C4F2010156
:101B4000884205D040F20041C4F20101884206D12A
:101B5000816801F00701062904BF00207047016871
:101B600041F001010160002070470000002804BF1F
:101B70000120704710B5044690F8410028B90020B4
:101B800084F84000204600F021F8242084F8410029
:101B90002068C16821F40051C160204600F0CEFAEF
:101BA0002068016921F490410161416921F02A0115
:101BB0004161C16841F40051C1600020202160648E
:101BC00084F8411084F84210606310BD80B586B07F
:101BD00044F200410068C4F20001002288420592EC
:101BE000CDE903220292019202D006B080BD00BF6F
:101BF00043F630000092C4F20200036943F400335C
:101C00000361036903F400330093009B00920368AF
:101C100043F001030360006800F0010000900098A9
:101C20000C2001900220CDE902020320049007203D
:101C3000059001F5DE3001A9FFF778F806B080BD08
:101C40002DE9F04381B0044690F84100202809D1E5
:101C500000294FF0010018BF002A07D101B0BDE8EC
:101C6000F08300BF022001B0BDE8F0830020606473
:101C700021201D460E4684F841001746FFF72CF937
:101C8000A784E784A1688146B1F5805F02D120690D
:101C900000285DD037460020E28C2168002A5DD004
:101CA0006A1C24D0002D4AD0804600BF0868000678
:101CB00008D4FFF711F9A0EB0900A8427AD82168EF
:101CC000C868F3E717B117F8010B04E038F8020B06
:101CD00000276FF35F204860E08C0138E084E08CDF
:101CE0000028E3D13AE000BF0A68120609D40A6866
:101CF000120606D40A6812065CBF0A685FEA02622E
:101D0000F2D51FB117F8012B05E000BF30F8022B08
:101D100000276FF35F224A60E28C013AE284E28C92
:101D2000002AE4D11AE000BF30F8022B00276FF33D
:101D30005F224A60E28C013AE284E28C72B10A6866
:101D4000120635D5002FEFD017F8012BF1E700BFB1
:101D500000273046E28C2168002AA1D1086840069D
:101D60001ED42DB3681C14D1086840062AD4086814
:101D7000400627D40868400624D4086840064FF07F
:101D80000000F1D50DE000BF2068C1680068400682
:101D900018D4FFF7A1F8A0EB0900A842F4D909E094
:101DA0000020202184F8411001B0BDE8F08300BF7D
:101DB000FFF792F80320202184F8411001B0BDE81C
:101DC000F08300BF0020202184F8411001B0BDE85D
:101DD000F083000080B540F20010C2F20000002144
:101DE000FFF712FE4EF6FC50CEF20000016841F003
:101DF0008071016041F20000CEF20000016841F004
:101E00000101016080BD0000F0B581B00024C4F282
:101E1000020441F20405204602210022CEF2000510
:101E2000FFF754F82F68FFF7F5F94DF68366C4F213
:101E30001B36A0FB06016FF0010000EA514000BF15
:101E40002968C91B81420BD22968C91B814207D26C
:101E50002968C91B814203D22968C91B8142EFD37B
:101E6000204602210122FFF731F82F68FFF7D2F94F
:101E7000A0FB0601880C00EB800040002968C91B0C
:101E800081420BD22968C91B814207D22968C91B2C
:101E9000814203D22968C91B8142EFD32046022127
:101EA0000022FFF713F83C20FEF72CFF40F2EC0075
:101EB000C2F2000090ED040A01B0F0BDFEE70000A0
:101EC000FEE70000FEE700007047000010B586B096
:101ED00000200590CDE90300CDE90100009043F614
:101EE0003000C4F20200016840F2004441F00201F7
:101EF00001600068C4F2020400F002000090009843
:101F00004FF4806001900120029001A92046FEF765
:101F10000DFF20464FF480610022FEF7D7FF06B088
:101F200010BD000070470000FEF7DCBF10B594B094
:101F300007AC20463421FEF715FB002043F6400194
:101F40000690CDE90400CDE902000190C4F202013F
:101F50000A6842F080520A60096801F080510191DC
:101F6000019947F200010190C4F200010A6842F4AD
:101F700040420A600968012201F44041019101993F
:101F80000221CDE90D1008200F90B4200A921022F2
:101F9000CDE91001204607910B92CDE91211FFF710
:101FA000B9F918B172B600BFFEE700BFFFF742F8FB
:101FB00010B172B6FEE700BF0F200290022003901E
:101FC000002004904FF4A05005904FF480500690EC
:101FD00002A80521FFF76CF810B172B6FEE700BF4A
:101FE00014B010BD4EF68850CEF20000016841F4E6
:101FF000700101607047000010B540F6FF3E0368B5
:10200000C4F2000E40F2004C7045C4F2010C25DC15
:10201000B0F1804F2FD040F20042C4F20002904253
:1020200029D040F60002C4F20002904223D041F6CB
:10203000FF72C4F20002904227DC70453ADCB0F136
:10204000804F5BD040F20042C4F20002904255D073
:1020500040F60002C4F200024EE000BF40F600422B
:10206000C4F20002904206D0604504D00022C4F2BF
:1020700001029042DBD14A6823F07003134341F61A
:10208000FF72C4F200029042D7DD43F6FF72C4F241
:102090000102904220DC42F20002C4F200029042AF
:1020A0002CD00022C4F20102904227D0604525D0F6
:1020B00028E000BF40F60042C4F2000290421DD06A
:1020C00041F60002C4F20002904217D041F60042ED
:1020D000C4F2000210E000BF44F20002C4F20102A8
:1020E00090420BD044F60002C4F20102904205D0A7
:1020F00044F20042C4F20102904203D1CA6823F4C0
:102100004073134323F080024B69D1F800E08C68E0
:102110001A430260C46240F48062C0F828E062455D
:1021200004BF09690163012141610169C90708BF51
:1021300010BD016921F00101016110BDB0B5044677
:10214000006804F108030ECB0569194325F44055D6
:102150002A4302616269E3691143C268194349F283
:102160000C639A431143C1604169A26921F4407133
:1021700041F20043114340F48062C4F201039A42E9
:10218000416103D1FFF760F802E000BFFFF748F8B4
:10219000E1694FF69C7563681922C0F6FF75B1F5C9
:1021A000004FA0FB02011FD15A00DB0FFEF79CF885
:1021B00048F21F51C5F2EB11A0FB01235A0905F1AA
:1021C000805302FB0300322303EBC000A0FB01019C
:1021D0004FF4F87000EA111000EB0210C1F3421145
:1021E000084421688860B0BD9A009B0FFEF77CF818
:1021F00048F21F51C5F2EB11A0FB01235A0902FB63
:102200000500322303EB0010A0FB0101F02000EADF
:10221000511000EB0210C1F343110844216888609B
:10222000B0BD0000FEE700008CB040F20008C4F230
:102230000208FEF765FEFFF779FE002543F6300041
:102240000995CDE90755CDE905550A95C4F2020077
:102250000168002241F0040101600168212601F0BB
:1022600004010A910A990A95016841F08001016010
:10227000016801F080010A910A990A95016841F00C
:1022800001010160016801F001010A910A990A95B2
:10229000016841F0020101600068212100F00200A4
:1022A0000A900A984046FEF711FE4FF40050059040
:1022B0004FF4041005ACCDE9060508F50060214691
:1022C000FEF734FD0120CDE906054046214605967E
:1022D0000895FEF72BFD1220CDE905054046214665
:1022E0000795FEF723FD40F20010A8F58031C2F2F9
:1022F00000004FF6FF730895CDE90655CDE90A5564
:10230000B32280E82600C0E90335C0E90555FFF790
:1023100063FA18B172B600BFFEE700BF4FF48050F9
:10232000059040F20010C2F2000005A9FFF79CFAE8
:1023300010B172B6FEE700BF40F20010C2F200001A
:102340000AA9FFF7EBF918B172B600BFFEE700BFAC
:1023500040F27005C2F20005A8F5DE31284640F8CB
:10236000341F4FF4E1314FF000090C22C0E901198C
:10237000C0E90399C0E90529C0F81C90FFF7F6FBF6
:1023800010B172B6FEE700BFFFF724FDFFF79EFD18
:1023900048F2000A9FED289AC4F2460A1CA605F1ED
:1023A000340708F580640CE00022FEF78FFD20461C
:1023B0004FF480610022FEF789FD4FF4FA70FEF7BA
:1023C000A1FCFFF721FD10EE100AB0EE408A00F0EC
:1023D00039FC41EC100B284632213246CDE9029AF5
:1023E0008DED000BFDF7F8FF2846FEF79CF882B252
:1023F000384629464FF0FF33FFF722FCB4EE498AF6
:1024000040462021F1EE10FACEDC0122D3E700BFD6
:102410004A6172616B3A20252E326620636D2C2052
:102420004B656365706174616E3A20252E326620BB
:102430006B6D2F680D0A0000000016435FEA400C28
:1024400008BF91F0000F4FEA8C234FEAC12243EA04
:1024500051514FEA1C5018BF00F5F0404FEA3000D0
:1024600018BF41F000415FEA6C5C00F02980BCF1CC
:10247000FF3F08BF40F080407047130C06BF1204B6
:102480004FF0100C4FF0000C130E04BF12020CF1B1
:10249000080C130F04BF12010CF1040C930F04BFBE
:1024A00092000CF1020CD30F04BF52000CF1010C8E
:1024B00011464FF00002A0F11F00A0EB0C00704786
:1024C00011F0004F08BF704731F000413FF4D5AF25
:1024D0000B0C06BF09044FF0100C4FF0000C0B0E54
:1024E00004BF09020CF1080C0B0F04BF09010CF129
:1024F000040C8B0F04BF89000CF1020CCB0F04BF3E
:1025000049000CF1010CCCF1200322FA03F341EA5B
:10251000030102FA0CF2A0EB0C0000F1010070477D
:1025200023F07F4720F07F4C80EA030000F000405A
:10253000ACEB070303F57C5303F1FF032DE980495E
:1025400009B44FEA144324EA03484FEA154B25EA3D
:102550000B4E0FF2042606EB13273E7803FB0667AB
:10256000C7F5000707FB06F64FEAD64606F1020656
:102570004FEA543707FB066CCCF1005C4FEA1C476E
:102580002CEA074C0CFB06F507FB06F404EB15469A
:102590004FEA961649085FEA320234BF00204FF036
:1025A00000404FEAD13706FB07FC4FEA1C4C0CFBFE
:1025B0000BF7D21B03FB0CF761EB07010CFB0EF7CB
:1025C000B0EB074072EB17420CFB08F734BFA2EBED
:1025D0000742B2EB074261EB17414FEA0C444FEA66
:1025E000910706FB07FC4FEA1C4C0CFB0BF7B0EB0A
:1025F000C74072EB573203FB0CF734BFA2EBC74264
:10260000B2EBC74261EB57310CFB0EF7B0EBC700E2
:1026100072EB57720CFB08F734BFA2EBC702B2EBA8
:10262000C70261EB57714FEA816141EA92114FEAAB
:10263000826242EA90124FEA806004EBCC04039F6E
:102640004FEAD13706FB07FC4FEA1C4C0CFB0BF79B
:10265000D21B03FB0CF761EB07010CFB0EF7B0EB91
:10266000074072EB17420CFB08F734BFA2EB07429E
:10267000B2EB074261EB17414FEA8C5504EB9C2407
:102680004FEA910706FB07FC4FEA1C4C0CFB0BF7CB
:10269000B0EBC74072EB573203FB0CF734BFA2EB31
:1026A000C742B2EBC74261EB57310CFB0EF7B0EB00
:1026B000C70072EB57720CFB08F734BFA2EBC702DE
:1026C000B2EBC70261EB57714FEA816141EA9211A7
:1026D0004FEA826242EA90124FEA806015EB4C2585
:1026E00044F100044FEAD13706FB07FC4FEA1C4CCB
:1026F0000CFB0BF7D21B03FB0CF761EB07010CFB88
:102700000EF7B0EB074072EB17420CFB08F734BF33
:10271000A2EB0742B2EB074261EB17414FEA81316E
:1027200041EA92414FEA823242EA90424FEA8030D7
:102730004FEA0C7615EB1C1544F1000448EA0343FC
:102740004EEA0B484FF0000EB2EB080C71EB03079A
:1027500024BF624639464EEB0E0E4FF0000B0018B8
:10276000524149414BEB0B0BB2EB080C71EB0307E9
:102770007BF1000B24BF624639464EEB0E0E4FF044
:10278000000B0018524149414BEB0B0BB2EB080C0C
:1027900071EB03077BF1000B24BF624639464EEB19
:1027A0000E0E51EA020718BF46F0010616EB0E7630
:1027B00055F1000254F1000103D5BDE88901BDE8DF
:1027C0000088BDE88901BDE80048B619524141EBD7
:1027D0000101A3F10103704780807F7E7D7C7B7ABD
:1027E0007978777676757473727171706F6E6E6DBD
:1027F0006C6C6B6A6A696868676666656464636363
:1028000062616160605F5F5E5E5D5D5C5C5B5B5AE8
:102810005A59595858575756565555555454535355
:1028200052525251515050504F4F4F4E4E4D4D4DB0
:102830004C4C4C4B4B4B4A4A4A49494948484847FB
:102840004747474646464545454444444443434339
:1028500043424242424141419C46002B30D47700E2
:102860002BD04FEA37071CB503B44FF010004FF0E0
:102870001001BAF1000F06D0BCF1000FDCBF40F030
:10288000080040F008014FF000000FBCBDE8104008
:102890000BF1010BBBF1010F08BF5FEA170722BF65
:1028A00012F1010211F101014FF0004143F1000367
:1028B00000F0004043EA00007047F9D35708D0E722
:1028C00046EA06464FEA164613F1400F1FDD13F1A4
:1028D000200FDFBF16430A46002120335B42BED0E3
:1028E000C3F1200746EA06464FEA164602FA07F702
:1028F00046EA070622FA03F2C3F1200701FA07F7B6
:1029000042EA070221FA03F14FF00003A7E746EA83
:10291000020646EA06464FEA164646EA0106BCBFEC
:1029200046EA0646360C4FF000034FF000024FF027
:10293000000194E72DE9804C70B49A46934691E8E3
:10294000380007C831EA400C48BF34EA430C03D5CD
:10295000FFF7E6FDFFF780FFF0BCBDE8008C2DE936
:10296000804C70B49A46934691E8380007C810F03E
:10297000804F08BF13F0804F03D100F005F8FFF738
:102980006BFFF0BCBDE8008C20F07F4723F07F4C4C
:1029900080EA030000F0004007EB0C03A3F57C5332
:1029A000A3F1FE0392F0000F00F0B38095F0000F4A
:1029B00000F077802DE901494FEA114021EA0048F3
:1029C0004FEA144624EA064700FB06FC08FB06F61D
:1029D00007FB08F818EB06484CEB164C00FB07F712
:1029E00018EB07484CEB17404FEA124B22EA0B4E0C
:1029F0004FEA154625EA06470BFB06FC0EFB06F6DA
:102A000007FB0EFE1EEB064E4CEB164C0BFB07F7BE
:102A10001EEB074E4CEB174B18EB0B0840F1000078
:102A200018EB0E0B58EB000840F100008F1A4FF026
:102A300000014FF000063CBFC943661B14BFB5EB55
:102A4000040C00213CBFC943F61B4FEA174427EA98
:102A500004454FEA1C472CEA074C04FB076205FBC0
:102A600007F70CFB05F616EB074642EB174204FB93
:102A70000CFC16EB0C4642EB1C421BEB060658EB1B
:102A8000020241414EEA8E0E46EA9E0601D5BDE89D
:102A90000189B619524141EB0101A3F10103BDE8DF
:102AA00001894FEA144524EA05464FEA114721EA15
:102AB000074C05FB07F406FB07F70CFB06F111EBCF
:102AC000074144EB174405FB0CFC11EB0C4144EBB4
:102AD0001C444FEA124722EA074C05FB07F206FBAB
:102AE00007F70CFB06F616EB074642EB174205FB11
:102AF0000CFC16EB0C4642EB1C456A1854F1000125
:102B000048BF7047B619524141EB0101A3F10103DF
:102B1000704795F0000F37D04FEA114221EA024684
:102B20004FEA144724EA074C02FB07F106FB07F7BC
:102B30000CFB06F414EB074441EB174102FB0CFCC1
:102B400014EB0C4441EB1C414FEA154725EA074CB6
:102B500002FB07F506FB07F70CFB06F616EB07462C
:102B600045EB174502FB0CFC16EB0C4645EB1C42F3
:102B7000121951F1000148BF7047B619524141EB9B
:102B80000101A3F1010370474FEA144524EA054609
:102B90004FEA114721EA074C05FB07F106FB07F74F
:102BA0000CFB06F212EB074241EB174105FB0CFC54
:102BB00012EB0C4251EB1C414FF0000648BF70472E
:102BC000921841EB0101A3F10103704703B401988E
:102BD0004100009850EAC12018BF04204A0D18BFD8
:102BE00040F0010040F2FF72B2EB515F08BF40F0CD
:102BF0000200012808BF052002B0704730380A28BB
:102C000001D20120704700207047000010B5002954
:102C10000AD00878002807D005487844FEF728F83D
:102C2000002801D0002010BD0248784410BD0000EB
:102C3000260200001E0200000808A0F500114FEA5D
:102C40003101704743004FEAD30C4FEA3C0C43403C
:102C50001FBF40070CF1605113F0FE4F70471CF08E
:102C6000006F03D10CF00041002070470CF00043CE
:102C700043EA507040EACC0010B500F00EF800BFF7
:102C8000000000924FEA0001FFF7D6BF4FF000416D
:102C9000A1F500214FF0000070470EF1020E2EF05A
:102CA000030E5EF8044B244204D44FEA4102B2F111
:102CB0007F4F11D84FEA4003B3F17F4F0CD80ED1AC
:102CC0004FEAD07C0CEB4C0C0CF1020CB2F17F4FB4
:102CD00008BF4CEBD17C04E04FF0080C01E04FEA58
:102CE000D17C0CEB4C0324FA03F404F00704B4F198
:102CF000040C06D20EEB840CBDE810404CF0010C25
:102D00006047DFE80CF0070802024FF00040A0F532
:102D1000800010BD0846420018BFD2F1807288BF03
:102D200000F0004010BDF1EE100A4FF6FF71C0F246
:102D3000C03120EA010040F04070E1EE100A704717
:102D4000FDF712BD02400000000000A000000000DE
:102D500005400000000000C8000000000C4000001A
:102D60000000409C00000000194000000020BCBE94
:102D70000000000034400000BFC91B8E00000004AA
:102D8000B5400000504BCFD06607E2CF01000000F5
:102D90006C4100003E8251AADFEEA7340100000022
:102DA000D9420000DCB5A0E23A301F97FFFFFFFFD9
:102DB000B4450000FD25A0C8E9A3C14FFFFFFFFFF8
:102DC000FF3F00000000008000000000FF3F000007
:102DD0000000008000000000000000000000000073
:102DE00001020304060708090000000001020304B1
:102DF00002000000040000000800000010000000B5
:102E0000FDFFFFFFFBFFFFFFF7FFFFFFEFFFFFFFF0
:102E1000FFFDFFFFFFFBFFFFFFF7FFFFFFEFFFFFE0
:102E2000602E0008000000201000000028020008AA
:102E3000702E000810000020400700004802000823
:102E40001C00000043000000F8FFFFFF0C00000022
:102E50000E0000000F0000002E0000000000000027
:102E600001000000100000000024F4000000000039
:04000005080001C529
:00000001FF
